{
  "address": "0xBabbdab28Df196338b776642c3E680a442764B46",
  "abi": [
    {
      "inputs": [
        {
          "internalType": "address",
          "name": "oraTokenAddress",
          "type": "address"
        }
      ],
      "stateMutability": "nonpayable",
      "type": "constructor"
    },
    {
      "inputs": [],
      "name": "AlreadyReportedInCurrentBucket",
      "type": "error"
    },
    {
      "inputs": [],
      "name": "BucketMedianAlreadyRecorded",
      "type": "error"
    },
    {
      "inputs": [],
      "name": "EmptyArray",
      "type": "error"
    },
    {
      "inputs": [],
      "name": "IndexOutOfBounds",
      "type": "error"
    },
    {
      "inputs": [],
      "name": "InsufficientStake",
      "type": "error"
    },
    {
      "inputs": [],
      "name": "InvalidPrice",
      "type": "error"
    },
    {
      "inputs": [],
      "name": "MedianNotRecorded",
      "type": "error"
    },
    {
      "inputs": [],
      "name": "NoRewardsAvailable",
      "type": "error"
    },
    {
      "inputs": [],
      "name": "NodeAlreadyRegistered",
      "type": "error"
    },
    {
      "inputs": [],
      "name": "NodeAlreadySlashed",
      "type": "error"
    },
    {
      "inputs": [],
      "name": "NodeDidNotReport",
      "type": "error"
    },
    {
      "inputs": [],
      "name": "NodeNotAtGivenIndex",
      "type": "error"
    },
    {
      "inputs": [],
      "name": "NodeNotRegistered",
      "type": "error"
    },
    {
      "inputs": [],
      "name": "NotDeviated",
      "type": "error"
    },
    {
      "inputs": [],
      "name": "OnlyPastBucketsAllowed",
      "type": "error"
    },
    {
      "inputs": [],
      "name": "TransferFailed",
      "type": "error"
    },
    {
      "inputs": [],
      "name": "WaitingPeriodNotOver",
      "type": "error"
    },
    {
      "anonymous": false,
      "inputs": [
        {
          "indexed": true,
          "internalType": "uint256",
          "name": "bucketNumber",
          "type": "uint256"
        },
        {
          "indexed": false,
          "internalType": "uint256",
          "name": "medianPrice",
          "type": "uint256"
        }
      ],
      "name": "BucketMedianRecorded",
      "type": "event"
    },
    {
      "anonymous": false,
      "inputs": [
        {
          "indexed": true,
          "internalType": "address",
          "name": "node",
          "type": "address"
        },
        {
          "indexed": false,
          "internalType": "uint256",
          "name": "amount",
          "type": "uint256"
        }
      ],
      "name": "NodeExited",
      "type": "event"
    },
    {
      "anonymous": false,
      "inputs": [
        {
          "indexed": true,
          "internalType": "address",
          "name": "node",
          "type": "address"
        },
        {
          "indexed": false,
          "internalType": "uint256",
          "name": "stakedAmount",
          "type": "uint256"
        }
      ],
      "name": "NodeRegistered",
      "type": "event"
    },
    {
      "anonymous": false,
      "inputs": [
        {
          "indexed": true,
          "internalType": "address",
          "name": "node",
          "type": "address"
        },
        {
          "indexed": false,
          "internalType": "uint256",
          "name": "amount",
          "type": "uint256"
        }
      ],
      "name": "NodeRewarded",
      "type": "event"
    },
    {
      "anonymous": false,
      "inputs": [
        {
          "indexed": true,
          "internalType": "address",
          "name": "node",
          "type": "address"
        },
        {
          "indexed": false,
          "internalType": "uint256",
          "name": "amount",
          "type": "uint256"
        }
      ],
      "name": "NodeSlashed",
      "type": "event"
    },
    {
      "anonymous": false,
      "inputs": [
        {
          "indexed": true,
          "internalType": "address",
          "name": "node",
          "type": "address"
        },
        {
          "indexed": false,
          "internalType": "uint256",
          "name": "price",
          "type": "uint256"
        },
        {
          "indexed": false,
          "internalType": "uint256",
          "name": "bucketNumber",
          "type": "uint256"
        }
      ],
      "name": "PriceReported",
      "type": "event"
    },
    {
      "anonymous": false,
      "inputs": [
        {
          "indexed": true,
          "internalType": "address",
          "name": "node",
          "type": "address"
        },
        {
          "indexed": false,
          "internalType": "uint256",
          "name": "amount",
          "type": "uint256"
        }
      ],
      "name": "StakeAdded",
      "type": "event"
    },
    {
      "inputs": [],
      "name": "BUCKET_WINDOW",
      "outputs": [
        {
          "internalType": "uint256",
          "name": "",
          "type": "uint256"
        }
      ],
      "stateMutability": "view",
      "type": "function"
    },
    {
      "inputs": [],
      "name": "INACTIVITY_PENALTY",
      "outputs": [
        {
          "internalType": "uint256",
          "name": "",
          "type": "uint256"
        }
      ],
      "stateMutability": "view",
      "type": "function"
    },
    {
      "inputs": [],
      "name": "MAX_DEVIATION_BPS",
      "outputs": [
        {
          "internalType": "uint256",
          "name": "",
          "type": "uint256"
        }
      ],
      "stateMutability": "view",
      "type": "function"
    },
    {
      "inputs": [],
      "name": "MINIMUM_STAKE",
      "outputs": [
        {
          "internalType": "uint256",
          "name": "",
          "type": "uint256"
        }
      ],
      "stateMutability": "view",
      "type": "function"
    },
    {
      "inputs": [],
      "name": "MISREPORT_PENALTY",
      "outputs": [
        {
          "internalType": "uint256",
          "name": "",
          "type": "uint256"
        }
      ],
      "stateMutability": "view",
      "type": "function"
    },
    {
      "inputs": [],
      "name": "REWARD_PER_REPORT",
      "outputs": [
        {
          "internalType": "uint256",
          "name": "",
          "type": "uint256"
        }
      ],
      "stateMutability": "view",
      "type": "function"
    },
    {
      "inputs": [],
      "name": "SLASHER_REWARD_PERCENTAGE",
      "outputs": [
        {
          "internalType": "uint256",
          "name": "",
          "type": "uint256"
        }
      ],
      "stateMutability": "view",
      "type": "function"
    },
    {
      "inputs": [],
      "name": "WAITING_PERIOD",
      "outputs": [
        {
          "internalType": "uint256",
          "name": "",
          "type": "uint256"
        }
      ],
      "stateMutability": "view",
      "type": "function"
    },
    {
      "inputs": [
        {
          "internalType": "uint256",
          "name": "amount",
          "type": "uint256"
        }
      ],
      "name": "addStake",
      "outputs": [],
      "stateMutability": "nonpayable",
      "type": "function"
    },
    {
      "inputs": [
        {
          "internalType": "uint256",
          "name": "",
          "type": "uint256"
        }
      ],
      "name": "blockBuckets",
      "outputs": [
        {
          "internalType": "uint256",
          "name": "medianPrice",
          "type": "uint256"
        }
      ],
      "stateMutability": "view",
      "type": "function"
    },
    {
      "inputs": [],
      "name": "claimReward",
      "outputs": [],
      "stateMutability": "nonpayable",
      "type": "function"
    },
    {
      "inputs": [
        {
          "internalType": "uint256",
          "name": "index",
          "type": "uint256"
        }
      ],
      "name": "exitNode",
      "outputs": [],
      "stateMutability": "nonpayable",
      "type": "function"
    },
    {
      "inputs": [],
      "name": "getCurrentBucketNumber",
      "outputs": [
        {
          "internalType": "uint256",
          "name": "",
          "type": "uint256"
        }
      ],
      "stateMutability": "view",
      "type": "function"
    },
    {
      "inputs": [
        {
          "internalType": "address",
          "name": "nodeAddress",
          "type": "address"
        }
      ],
      "name": "getEffectiveStake",
      "outputs": [
        {
          "internalType": "uint256",
          "name": "",
          "type": "uint256"
        }
      ],
      "stateMutability": "view",
      "type": "function"
    },
    {
      "inputs": [],
      "name": "getLatestPrice",
      "outputs": [
        {
          "internalType": "uint256",
          "name": "",
          "type": "uint256"
        }
      ],
      "stateMutability": "view",
      "type": "function"
    },
    {
      "inputs": [],
      "name": "getNodeAddresses",
      "outputs": [
        {
          "internalType": "address[]",
          "name": "",
          "type": "address[]"
        }
      ],
      "stateMutability": "view",
      "type": "function"
    },
    {
      "inputs": [
        {
          "internalType": "uint256",
          "name": "bucketNumber",
          "type": "uint256"
        }
      ],
      "name": "getOutlierNodes",
      "outputs": [
        {
          "internalType": "address[]",
          "name": "",
          "type": "address[]"
        }
      ],
      "stateMutability": "view",
      "type": "function"
    },
    {
      "inputs": [
        {
          "internalType": "uint256",
          "name": "bucketNumber",
          "type": "uint256"
        }
      ],
      "name": "getPastPrice",
      "outputs": [
        {
          "internalType": "uint256",
          "name": "",
          "type": "uint256"
        }
      ],
      "stateMutability": "view",
      "type": "function"
    },
    {
      "inputs": [
        {
          "internalType": "address",
          "name": "nodeAddress",
          "type": "address"
        },
        {
          "internalType": "uint256",
          "name": "bucketNumber",
          "type": "uint256"
        }
      ],
      "name": "getSlashedStatus",
      "outputs": [
        {
          "internalType": "uint256",
          "name": "price",
          "type": "uint256"
        },
        {
          "internalType": "bool",
          "name": "slashed",
          "type": "bool"
        }
      ],
      "stateMutability": "view",
      "type": "function"
    },
    {
      "inputs": [
        {
          "internalType": "uint256",
          "name": "",
          "type": "uint256"
        }
      ],
      "name": "nodeAddresses",
      "outputs": [
        {
          "internalType": "address",
          "name": "",
          "type": "address"
        }
      ],
      "stateMutability": "view",
      "type": "function"
    },
    {
      "inputs": [
        {
          "internalType": "address",
          "name": "",
          "type": "address"
        }
      ],
      "name": "nodes",
      "outputs": [
        {
          "internalType": "uint256",
          "name": "stakedAmount",
          "type": "uint256"
        },
        {
          "internalType": "uint256",
          "name": "lastReportedBucket",
          "type": "uint256"
        },
        {
          "internalType": "uint256",
          "name": "reportCount",
          "type": "uint256"
        },
        {
          "internalType": "uint256",
          "name": "claimedReportCount",
          "type": "uint256"
        },
        {
          "internalType": "uint256",
          "name": "firstBucket",
          "type": "uint256"
        },
        {
          "internalType": "bool",
          "name": "active",
          "type": "bool"
        }
      ],
      "stateMutability": "view",
      "type": "function"
    },
    {
      "inputs": [],
      "name": "oracleToken",
      "outputs": [
        {
          "internalType": "contract ORA",
          "name": "",
          "type": "address"
        }
      ],
      "stateMutability": "view",
      "type": "function"
    },
    {
      "inputs": [
        {
          "internalType": "uint256",
          "name": "bucketNumber",
          "type": "uint256"
        }
      ],
      "name": "recordBucketMedian",
      "outputs": [],
      "stateMutability": "nonpayable",
      "type": "function"
    },
    {
      "inputs": [
        {
          "internalType": "uint256",
          "name": "amount",
          "type": "uint256"
        }
      ],
      "name": "registerNode",
      "outputs": [],
      "stateMutability": "nonpayable",
      "type": "function"
    },
    {
      "inputs": [
        {
          "internalType": "uint256",
          "name": "price",
          "type": "uint256"
        }
      ],
      "name": "reportPrice",
      "outputs": [],
      "stateMutability": "nonpayable",
      "type": "function"
    },
    {
      "inputs": [
        {
          "internalType": "address",
          "name": "nodeToSlash",
          "type": "address"
        },
        {
          "internalType": "uint256",
          "name": "bucketNumber",
          "type": "uint256"
        },
        {
          "internalType": "uint256",
          "name": "reportIndex",
          "type": "uint256"
        },
        {
          "internalType": "uint256",
          "name": "nodeAddressesIndex",
          "type": "uint256"
        }
      ],
      "name": "slashNode",
      "outputs": [],
      "stateMutability": "nonpayable",
      "type": "function"
    }
  ],
  "transactionHash": "0xf520c10de7b1ab24d935201b9f78e93089f1b3774f52eaf993beb77f05e8b4e4",
  "args": [
    "0x0E8fB5b3eFA697CcC2AB4ee6744425B046Fa2322"
  ],
  "numDeployments": 1,
  "solcInputHash": "9d5f3885935171f07e79e658febaddc0",
  "bytecode": "0x6080604052348015600f57600080fd5b50604051611b33380380611b33833981016040819052602c916050565b600080546001600160a01b0319166001600160a01b0392909216919091179055607e565b600060208284031215606157600080fd5b81516001600160a01b0381168114607757600080fd5b9392505050565b611aa68061008d6000396000f3fe608060405234801561001057600080fd5b506004361061018e5760003560e01c80637f980edf116100de578063b88a802f11610097578063c7f898f011610071578063c7f898f014610386578063eb4f16b514610399578063eecd509a146103ac578063ff24357a146101b957600080fd5b8063b88a802f1461036b578063bd53436914610250578063c4d770901461037357600080fd5b80637f980edf146102ed57806383472fcf146103005780638bc116a21461032b5780638e15f47314610353578063a3cda9d11461035b578063ac9d5d691461036357600080fd5b80632e9498241161014b57806357772d311161012557806357772d311461029c5780636cfcca9c146102af5780636f85c7e4146102c25780637979e0ea146102ca57600080fd5b80632e9498241461025f5780633e07505c14610274578063479c92fe1461028957600080fd5b806302211f5e1461019357806308dbbb03146101b957806311ce06a2146101c9578063189a5a17146101d157806325c6840314610247578063298a9b2014610250575b600080fd5b6101a66101a136600461187f565b6103bf565b6040519081526020015b60405180910390f35b6101a668056bc75e2d6310000081565b6101a66104f1565b6102186101df36600461187f565b60016020819052600091825260409091208054918101546002820154600383015460048401546005909401549293919290919060ff1686565b6040805196875260208701959095529385019290925260608401526080830152151560a082015260c0016101b0565b6101a66103e881565b6101a6670de0b6b3a764000081565b61026761050e565b6040516101b0919061189a565b6102876102823660046118e6565b610570565b005b6102676102973660046118e6565b610785565b6102876102aa3660046118ff565b610927565b6102876102bd3660046118e6565b610c9e565b6101a6600281565b6101a66102d83660046118e6565b60026020526000908152604090206003015481565b6102876102fb3660046118e6565b610dc6565b600054610313906001600160a01b031681565b6040516001600160a01b0390911681526020016101b0565b61033e610339366004611938565b610fc2565b604080519283529015156020830152016101b0565b6101a6611070565b6101a6601881565b6101a6600a81565b6102876110d1565b6103136103813660046118e6565b6111cf565b6102876103943660046118e6565b6111f9565b6102876103a73660046118e6565b611368565b6101a66103ba3660046118e6565b6114b1565b6001600160a01b0381166000908152600160208181526040808420815160c08101835281548152938101549284019290925260028201549083015260038101546060830152600481015460808301526005015460ff16151560a0820181905261042b5750600092915050565b60006104356104f1565b90508160800151810361044a57505192915050565b600082608001518261045c9190611978565b6040840151602085015191925090831480156104785750600081115b1561048b57610488600182611978565b90505b81811061049d57505090519392505050565b60006104a98284611978565b905060006104bf670de0b6b3a76400008361198b565b865190915081106104d857506000979650505050505050565b85516104e5908290611978565b98975050505050505050565b60006104fe6018436119b8565b6105099060016119cc565b905090565b6060600380548060200260200160405190810160405280929190818152602001828054801561056657602002820191906000526020600020905b81546001600160a01b03168152600190910190602001808311610548575b5050505050905090565b3360009081526001602052604081206005015460ff16151590036105a6576040516229eaad60e31b815260040160405180910390fd5b60035481106105c857604051634e23d03560e01b815260040160405180910390fd5b336001600160a01b0316600382815481106105e5576105e56119df565b6000918252602090912001546001600160a01b0316146106185760405163a2f90c8160e01b815260040160405180910390fd5b3360009081526001602081905260409091209081015461063a906002906119cc565b6106426104f1565b101561066157604051630832f48360e21b815260040160405180910390fd5b600061066c336103bf565b905061069f60038481548110610684576106846119df565b6000918252602090912001546001600160a01b0316846114f8565b336000818152600160205260408082208290558154905163a9059cbb60e01b815260048101939093526024830184905290916001600160a01b039091169063a9059cbb906044016020604051808303816000875af1158015610705573d6000803e3d6000fd5b505050506040513d601f19601f8201168201806040525081019061072991906119f5565b905080610749576040516312171d8360e31b815260040160405180910390fd5b60405182815233907ffc3b44de028b3d70241998c7d84e5520785226d0c49d16d2b487735225254b3b906020015b60405180910390a250505050565b60008181526002602052604081206003810154606092036107b957604051630d60e2c560e21b815260040160405180910390fd5b600181015460009067ffffffffffffffff8111156107d9576107d9611a17565b604051908082528060200260200182016040528015610802578160200160208202803683370190505b5090506000805b600184015481101561091d57600084600101828154811061082c5761082c6119df565b60009182526020808320909101546001600160a01b03168083529087905260409091205490915060ff16156108615750610915565b6000856002018381548110610878576108786119df565b9060005260206000200154905080600003610894575050610915565b6108a2818760030154611650565b15610912578560010183815481106108bc576108bc6119df565b9060005260206000200160009054906101000a90046001600160a01b03168585815181106108ec576108ec6119df565b6001600160a01b03909216602092830291909101909101528361090e81611a2d565b9450505b50505b600101610809565b5081529392505050565b6001600160a01b03841660009081526001602052604090206005015460ff16610962576040516229eaad60e31b815260040160405180910390fd5b61096a6104f1565b831061098957604051638de4068d60e01b815260040160405180910390fd5b600083815260026020526040812060038101549091036109bc57604051630d60e2c560e21b815260040160405180910390fd5b6001600160a01b03851660009081526020829052604090205460ff16156109f65760405163640d410760e11b815260040160405180910390fd5b60018101548310610a1a57604051634e23d03560e01b815260040160405180910390fd5b806001018381548110610a2f57610a2f6119df565b6000918252602090912001546001600160a01b03868116911614610a665760405163a2f90c8160e01b815260040160405180910390fd5b6000816002018481548110610a7d57610a7d6119df565b9060005260206000200154905080600003610aab576040516339e78cf960e11b815260040160405180910390fd5b610ab9818360030154611650565b610ad657604051632626606360e11b815260040160405180910390fd5b6001600160a01b038616600090815260208381526040808320805460ff191660019081179091559091528120805490919068056bc75e2d6310000011610b255768056bc75e2d63100000610b28565b81545b905080826000016000828254610b3e9190611978565b90915550508154600003610b9b57610b5688866114f8565b876001600160a01b03167ffc3b44de028b3d70241998c7d84e5520785226d0c49d16d2b487735225254b3b6000604051610b9291815260200190565b60405180910390a25b60006064610baa600a8461198b565b610bb491906119b8565b6000805460405163a9059cbb60e01b81523360048201526024810184905292935090916001600160a01b039091169063a9059cbb906044016020604051808303816000875af1158015610c0b573d6000803e3d6000fd5b505050506040513d601f19601f82011682018060405250810190610c2f91906119f5565b905080610c4f576040516312171d8360e31b815260040160405180910390fd5b896001600160a01b03167f51cf713376ddb1e5f5828bb6aa39d99de812176d62c3d3550bdc4e0b5e86e1a584604051610c8a91815260200190565b60405180910390a250505050505050505050565b610ca66104f1565b8110610cc557604051638de4068d60e01b815260040160405180910390fd5b6000818152600260205260409020600381015415610cf657604051634032e39760e11b815260040160405180910390fd5b6002810154600003610d1b576040516339e78cf960e11b815260040160405180910390fd5b600081600201805480602002602001604051908101604052809291908181526020018280548015610d6b57602002820191906000526020600020905b815481526020019060010190808311610d57575b50505050509050610d7b8161169d565b610d848161178e565b6003830181905560405190815283907fedf992fb93a24d0aa183128c5dfb20a7603592bad3feb0702efa3a65260a2dad906020015b60405180910390a2505050565b3360009081526001602052604090206005015460ff1615610dfa57604051630eb0d31360e11b815260040160405180910390fd5b68056bc75e2d63100000811015610e24576040516378de4a6960e11b815260040160405180910390fd5b600080546040516323b872dd60e01b8152336004820152306024820152604481018490526001600160a01b03909116906323b872dd906064016020604051808303816000875af1158015610e7c573d6000803e3d6000fd5b505050506040513d601f19601f82011682018060405250810190610ea091906119f5565b905080610ec0576040516312171d8360e31b815260040160405180910390fd5b6040518060c00160405280838152602001600081526020016000815260200160008152602001610eee6104f1565b815260016020918201819052336000818152828452604080822086518155868601518186015586820151600282015560608701516003808301919091556080880151600483015560a0909701516005909101805460ff1916911515919091179055855493840186559490527fc2575a0e9e593c00f959f8c92f12db2869c3395a3b0502d05e2516446f71f85b90910180546001600160a01b0319168217905591518481527ff773bca07d020a1bc1fdd45ea3db573da547dd27180143afaf075c158a84759491015b60405180910390a25050565b60008181526002602052604081208190815b600182015481101561106657856001600160a01b0316826001018281548110610fff57610fff6119df565b6000918252602090912001546001600160a01b03160361105e5781600201818154811061102e5761102e6119df565b60009182526020808320909101546001600160a01b038916835293905260409020549193505060ff169050611069565b600101610fd4565b50505b9250929050565b600080600161107d6104f1565b6110879190611978565b600081815260026020526040812060030154919250036110ba57604051630d60e2c560e21b815260040160405180910390fd5b600090815260026020526040902060030154919050565b336000908152600160205260408120600381015460028201549192916110f79190611978565b90508060000361111a5760405163afb0be3360e01b815260040160405180910390fd5b600282015460038301556000611138670de0b6b3a76400008361198b565b6000546040516340c10f1960e01b8152336004820152602481018390529192506001600160a01b0316906340c10f1990604401600060405180830381600087803b15801561118557600080fd5b505af1158015611199573d6000803e3d6000fd5b50506040518381523392507f4ea3e03797614006774acce32832fbaa20d9d69de554df367f4bb8a98b92e7429150602001610db9565b600381815481106111df57600080fd5b6000918252602090912001546001600160a01b0316905081565b3360009081526001602052604081206005015460ff161515900361122f576040516229eaad60e31b815260040160405180910390fd5b8060000361124f5760405162bfc92160e01b815260040160405180910390fd5b68056bc75e2d63100000611262336103bf565b1015611281576040516378de4a6960e11b815260040160405180910390fd5b600061128b6104f1565b33600090815260016020819052604090912090810154919250908290036112c5576040516303309d3f60e11b815260040160405180910390fd5b600082815260026020818152604083206001808201805480830182559086528386200180546001600160a01b031916331790558184018054808301825590865292852090920187905584820186905591840180549293919290919061132b9084906119cc565b9091555050604080518581526020810185905233917f9e595d16d532e4b0dee9420e99a1a4c9862cfdb004a5d369e9695880daf6d3e09101610777565b3360009081526001602052604081206005015460ff161515900361139e576040516229eaad60e31b815260040160405180910390fd5b806000036113bf576040516378de4a6960e11b815260040160405180910390fd5b600080546040516323b872dd60e01b8152336004820152306024820152604481018490526001600160a01b03909116906323b872dd906064016020604051808303816000875af1158015611417573d6000803e3d6000fd5b505050506040513d601f19601f8201168201806040525081019061143b91906119f5565b90508061145b576040516312171d8360e31b815260040160405180910390fd5b336000908152600160205260408120805484929061147a9084906119cc565b909155505060405182815233907f7c717985ac273e663b7f3050f5b15a4388ff6ed952338954f650e2093e13937f90602001610fb6565b60008181526002602052604081206003015481036114e257604051630d60e2c560e21b815260040160405180910390fd5b5060009081526002602052604090206003015490565b600354811061151a57604051634e23d03560e01b815260040160405180910390fd5b816001600160a01b031660038281548110611537576115376119df565b6000918252602090912001546001600160a01b03161461156a5760405163a2f90c8160e01b815260040160405180910390fd5b60035460009061157c90600190611978565b90508082146115f35760038181548110611598576115986119df565b600091825260209091200154600380546001600160a01b0390921691849081106115c4576115c46119df565b9060005260206000200160006101000a8154816001600160a01b0302191690836001600160a01b031602179055505b600380548061160457611604611a46565b60008281526020808220830160001990810180546001600160a01b03191690559092019092556001600160a01b039490941681526001909352505060409020600501805460ff19169055565b600080828411611669576116648484611978565b611673565b6116738385611978565b90506000836116848361271061198b565b61168e91906119b8565b6103e810925050505b92915050565b805160005b81811015611789578060006116b88260016119cc565b90505b83811015611709578482815181106116d5576116d56119df565b60200260200101518582815181106116ef576116ef6119df565b60200260200101511015611701578091505b6001016116bb565b5081811461178057838181518110611723576117236119df565b602002602001015184838151811061173d5761173d6119df565b6020026020010151858481518110611757576117576119df565b60200260200101868481518110611770576117706119df565b6020908102919091010191909152525b506001016116a2565b505050565b80516000908082036117b35760405163521299a960e01b815260040160405180910390fd5b6117be600282611a5c565b600003611837576002836117d282846119b8565b815181106117e2576117e26119df565b60200260200101518460016002856117fa91906119b8565b6118049190611978565b81518110611814576118146119df565b602002602001015161182691906119cc565b61183091906119b8565b9392505050565b826118436002836119b8565b81518110611853576118536119df565b6020026020010151915050919050565b80356001600160a01b038116811461187a57600080fd5b919050565b60006020828403121561189157600080fd5b61183082611863565b602080825282518282018190526000918401906040840190835b818110156118db5783516001600160a01b03168352602093840193909201916001016118b4565b509095945050505050565b6000602082840312156118f857600080fd5b5035919050565b6000806000806080858703121561191557600080fd5b61191e85611863565b966020860135965060408601359560600135945092505050565b6000806040838503121561194b57600080fd5b61195483611863565b946020939093013593505050565b634e487b7160e01b600052601160045260246000fd5b8181038181111561169757611697611962565b808202811582820484141761169757611697611962565b634e487b7160e01b600052601260045260246000fd5b6000826119c7576119c76119a2565b500490565b8082018082111561169757611697611962565b634e487b7160e01b600052603260045260246000fd5b600060208284031215611a0757600080fd5b8151801515811461183057600080fd5b634e487b7160e01b600052604160045260246000fd5b600060018201611a3f57611a3f611962565b5060010190565b634e487b7160e01b600052603160045260246000fd5b600082611a6b57611a6b6119a2565b50069056fea2646970667358221220cf978b37bab4a46e07f9aa44188bcf682b6eab1335a381a4b87030badad5606f64736f6c634300081e0033",
  "devdoc": {
    "kind": "dev",
    "methods": {
      "claimReward()": {
        "details": "Calculates rewards based on time elapsed since last claim."
      },
      "exitNode(uint256)": {
        "details": "Removes the node from the system and sends the stake to the node.      Requires that the the initial waiting period has passed to ensure the      node has been slashed if it reported a bad price before allowing it to exit.",
        "params": {
          "index": "The index of the node to remove in nodeAddresses"
        }
      },
      "getCurrentBucketNumber()": {
        "details": "Returns the current bucket number based on the block number",
        "returns": {
          "_0": "The current bucket number"
        }
      },
      "getEffectiveStake(address)": {
        "details": "Effective stake = stakedAmount - (missedBuckets * INACTIVITY_PENALTY), floored at 0"
      },
      "getLatestPrice()": {
        "details": "Requires that the median for the bucket be recorded via recordBucketMedian",
        "returns": {
          "_0": "The median price for the last finalized bucket"
        }
      },
      "getNodeAddresses()": {
        "returns": {
          "_0": "Array of registered oracle node addresses"
        }
      },
      "getOutlierNodes(uint256)": {
        "params": {
          "bucketNumber": "The bucket number to get the outliers from"
        },
        "returns": {
          "_0": "Array of node addresses considered outliers"
        }
      },
      "getPastPrice(uint256)": {
        "params": {
          "bucketNumber": "The bucket number to read the median price from"
        },
        "returns": {
          "_0": "The median price stored for the bucket"
        }
      },
      "getSlashedStatus(address,uint256)": {
        "params": {
          "bucketNumber": "The bucket number to get the data from",
          "nodeAddress": "The address of the node to get the data for"
        },
        "returns": {
          "price": "The price of the node at the specified bucket",
          "slashed": "The slashed status of the node at the specified bucket"
        }
      },
      "recordBucketMedian(uint256)": {
        "details": "Anyone who uses the oracle's price feed can call this function to record the median price for a bucket.",
        "params": {
          "bucketNumber": "The bucket number to finalize"
        }
      },
      "registerNode(uint256)": {
        "details": "Creates a new OracleNode struct and adds the sender to the nodeAddresses array.      Requires minimum stake amount and prevents duplicate registrations."
      },
      "reportPrice(uint256)": {
        "details": "Updates the node's lastReportedBucket and price in that bucket. Requires sufficient stake.",
        "params": {
          "price": "The new price value to report"
        }
      },
      "slashNode(address,uint256,uint256,uint256)": {
        "params": {
          "bucketNumber": "The bucket number to slash the node from",
          "nodeAddressesIndex": "The index of the node to slash in the nodeAddresses array",
          "nodeToSlash": "The address of the node to slash",
          "reportIndex": "The index of node in the prices and reporters arrays"
        }
      }
    },
    "version": 1
  },
  "userdoc": {
    "errors": {
      "EmptyArray()": [
        {
          "notice": "Errors //////"
        }
      ],
      "NodeNotRegistered()": [
        {
          "notice": "Errors //////"
        }
      ]
    },
    "events": {
      "NodeRegistered(address,uint256)": {
        "notice": "Events /////"
      }
    },
    "kind": "user",
    "methods": {
      "addStake(uint256)": {
        "notice": "Allows a registered node to increase its ORA token stake"
      },
      "claimReward()": {
        "notice": "Allows active and inactive nodes to claim accumulated ORA token rewards"
      },
      "constructor": {
        "notice": "Constructor ///"
      },
      "exitNode(uint256)": {
        "notice": "Allows a registered node to exit the system and withdraw their stake"
      },
      "getCurrentBucketNumber()": {
        "notice": "Returns the current bucket number"
      },
      "getEffectiveStake(address)": {
        "notice": "Returns the effective stake accounting for inactivity penalties via missed buckets"
      },
      "getLatestPrice()": {
        "notice": "Returns the stored median price from the most recently completed bucket"
      },
      "getNodeAddresses()": {
        "notice": "Returns the list of registered oracle node addresses"
      },
      "getOutlierNodes(uint256)": {
        "notice": "Returns the addresses of nodes in a bucket whose reported price deviates beyond the threshold"
      },
      "getPastPrice(uint256)": {
        "notice": "Returns the stored median price from a specified bucket"
      },
      "getSlashedStatus(address,uint256)": {
        "notice": "Returns the price and slashed status of a node at a given bucket"
      },
      "oracleToken()": {
        "notice": "State Variables //"
      },
      "recordBucketMedian(uint256)": {
        "notice": "Records the median price for a bucket once sufficient reports are available"
      },
      "registerNode(uint256)": {
        "notice": "Registers a new oracle node with initial ORA token stake"
      },
      "reportPrice(uint256)": {
        "notice": "Updates the price reported by an oracle node (only registered nodes)"
      },
      "slashNode(address,uint256,uint256,uint256)": {
        "notice": "Slashes a node for giving a price that is deviated too far from the average"
      }
    },
    "version": 1
  },
  "storageLayout": {
    "storage": [
      {
        "astId": 1112,
        "contract": "contracts/01_Staking/StakingOracle.sol:StakingOracle",
        "label": "oracleToken",
        "offset": 0,
        "slot": "0",
        "type": "t_contract(ORA)1065"
      },
      {
        "astId": 1143,
        "contract": "contracts/01_Staking/StakingOracle.sol:StakingOracle",
        "label": "nodes",
        "offset": 0,
        "slot": "1",
        "type": "t_mapping(t_address,t_struct(OracleNode)1125_storage)"
      },
      {
        "astId": 1148,
        "contract": "contracts/01_Staking/StakingOracle.sol:StakingOracle",
        "label": "blockBuckets",
        "offset": 0,
        "slot": "2",
        "type": "t_mapping(t_uint256,t_struct(BlockBucket)1138_storage)"
      },
      {
        "astId": 1151,
        "contract": "contracts/01_Staking/StakingOracle.sol:StakingOracle",
        "label": "nodeAddresses",
        "offset": 0,
        "slot": "3",
        "type": "t_array(t_address)dyn_storage"
      }
    ],
    "types": {
      "t_address": {
        "encoding": "inplace",
        "label": "address",
        "numberOfBytes": "20"
      },
      "t_array(t_address)dyn_storage": {
        "base": "t_address",
        "encoding": "dynamic_array",
        "label": "address[]",
        "numberOfBytes": "32"
      },
      "t_array(t_uint256)dyn_storage": {
        "base": "t_uint256",
        "encoding": "dynamic_array",
        "label": "uint256[]",
        "numberOfBytes": "32"
      },
      "t_bool": {
        "encoding": "inplace",
        "label": "bool",
        "numberOfBytes": "1"
      },
      "t_contract(ORA)1065": {
        "encoding": "inplace",
        "label": "contract ORA",
        "numberOfBytes": "20"
      },
      "t_mapping(t_address,t_bool)": {
        "encoding": "mapping",
        "key": "t_address",
        "label": "mapping(address => bool)",
        "numberOfBytes": "32",
        "value": "t_bool"
      },
      "t_mapping(t_address,t_struct(OracleNode)1125_storage)": {
        "encoding": "mapping",
        "key": "t_address",
        "label": "mapping(address => struct StakingOracle.OracleNode)",
        "numberOfBytes": "32",
        "value": "t_struct(OracleNode)1125_storage"
      },
      "t_mapping(t_uint256,t_struct(BlockBucket)1138_storage)": {
        "encoding": "mapping",
        "key": "t_uint256",
        "label": "mapping(uint256 => struct StakingOracle.BlockBucket)",
        "numberOfBytes": "32",
        "value": "t_struct(BlockBucket)1138_storage"
      },
      "t_struct(BlockBucket)1138_storage": {
        "encoding": "inplace",
        "label": "struct StakingOracle.BlockBucket",
        "members": [
          {
            "astId": 1129,
            "contract": "contracts/01_Staking/StakingOracle.sol:StakingOracle",
            "label": "slashedOffenses",
            "offset": 0,
            "slot": "0",
            "type": "t_mapping(t_address,t_bool)"
          },
          {
            "astId": 1132,
            "contract": "contracts/01_Staking/StakingOracle.sol:StakingOracle",
            "label": "reporters",
            "offset": 0,
            "slot": "1",
            "type": "t_array(t_address)dyn_storage"
          },
          {
            "astId": 1135,
            "contract": "contracts/01_Staking/StakingOracle.sol:StakingOracle",
            "label": "prices",
            "offset": 0,
            "slot": "2",
            "type": "t_array(t_uint256)dyn_storage"
          },
          {
            "astId": 1137,
            "contract": "contracts/01_Staking/StakingOracle.sol:StakingOracle",
            "label": "medianPrice",
            "offset": 0,
            "slot": "3",
            "type": "t_uint256"
          }
        ],
        "numberOfBytes": "128"
      },
      "t_struct(OracleNode)1125_storage": {
        "encoding": "inplace",
        "label": "struct StakingOracle.OracleNode",
        "members": [
          {
            "astId": 1114,
            "contract": "contracts/01_Staking/StakingOracle.sol:StakingOracle",
            "label": "stakedAmount",
            "offset": 0,
            "slot": "0",
            "type": "t_uint256"
          },
          {
            "astId": 1116,
            "contract": "contracts/01_Staking/StakingOracle.sol:StakingOracle",
            "label": "lastReportedBucket",
            "offset": 0,
            "slot": "1",
            "type": "t_uint256"
          },
          {
            "astId": 1118,
            "contract": "contracts/01_Staking/StakingOracle.sol:StakingOracle",
            "label": "reportCount",
            "offset": 0,
            "slot": "2",
            "type": "t_uint256"
          },
          {
            "astId": 1120,
            "contract": "contracts/01_Staking/StakingOracle.sol:StakingOracle",
            "label": "claimedReportCount",
            "offset": 0,
            "slot": "3",
            "type": "t_uint256"
          },
          {
            "astId": 1122,
            "contract": "contracts/01_Staking/StakingOracle.sol:StakingOracle",
            "label": "firstBucket",
            "offset": 0,
            "slot": "4",
            "type": "t_uint256"
          },
          {
            "astId": 1124,
            "contract": "contracts/01_Staking/StakingOracle.sol:StakingOracle",
            "label": "active",
            "offset": 0,
            "slot": "5",
            "type": "t_bool"
          }
        ],
        "numberOfBytes": "192"
      },
      "t_uint256": {
        "encoding": "inplace",
        "label": "uint256",
        "numberOfBytes": "32"
      }
    }
  }
}